:020000040000FA
:06080000E8EF2AF01200EF
:020806001200DE
:0608080016EF04F01200DF
:0608180012EF06F01200D1
:02081E000100D7
:0C0820000F560000CE0100002A0000006E
:04082C00DACFE4FF3C
:10083000E2CFDAFFE9CFE4FFEACFE4FFF6CFE4FF4F
:10084000F7CFE4FFF5CFE4FFF3CFE4FFF4CFE4FF0D
:10085000FACFE4FF00EE00F0140EE80403E3EECF5D
:10086000E4FFFBD700EE14F0080EE80403E3EECF3C
:10087000E4FFFBD7E652F2A434D1D59EFC0ED76E2E
:100880003F0ED66ED58E0101072B000E0823010105
:100890008F2B000E9023912392230101932B000EA6
:1008A0009423952396230101972B000E98239923D7
:1008B0009A2301019B2B000E9C239D239E23010163
:1008C000092B000E0A230001EA2B000EEB23320E47
:1008D0000001815D02E20001812B030E010100197C
:1008E00001E1015101E187D0020E0101001901E18E
:1008F000015144E0010E0101001901E1015107E03D
:100900000101005101E1015101E0E5D0E9D0805041
:10091000100B100A01E0010E010808E10101026B51
:10092000036B0101002B000E012327D00101022BD4
:10093000000E03230101F40ED8800255010E035569
:100940001CE20101026B036B0101010E0D1901E1B3
:100950000E5106E00101070E0D1901E10E510DE1E6
:100960000101AAB1BDD00101AAB3BAD00101AAB553
:10097000B7D00101AAB7B4D0897EB2D080A805D083
:1009800001010007000E015B35D00101022B000EB2
:1009900003230101320ED8800255000E03552AE2CE
:1009A000000EE66EE66A000EE66EE66A33EC0AF0CA
:1009B000E552E552E552E552899E899C8A908A98D3
:1009C000020E01010D1901E10E510BE001010D5163
:1009D00001E10E5101E00AD0898E0101096B0A6B19
:1009E00005D0040E01010D6F0E6B00D00101002B2C
:1009F000000E012375D080A841D0040E01010D190D
:100A000001E10E5135E0070E01010D1901E10E5112
:100A10002AE0050E01010D1901E10E511FE0030E40
:100A200001010D1901E10E5114E0010E01010D1932
:100A300001E10E5109E001010D5101E10E5101E00A
:100A400018D00101AA8115D0020E01010D6F0E6BA5
:100A500010D0010E01010D6F0E6B0BD0060E0101BF
:100A60000D6F0E6B06D0080E01010D6F0E6B01D0DD
:100A7000FF000101002B000E01232CD0050E010107
:100A80000D1901E10E5116E001010D5101E10E5168
:100A900001E020D00101D00ED8800955070E0A557B
:100AA00008E2899C050E01010D6F0E6B0101026BBE
:100AB000036B10D00101022B000E03230101640E11
:100AC000D8800255000E035504E20101026B036B4E
:100AD000897E00D005D0010E0101006F016B00D0AE
:100AE000F2949EA673D00001816B0001826B00011D
:100AF00080510F0A64E0010A5EE0030A44E0010A43
:100B000039E0070A2EE0080A23E0010A0AE0030A96
:100B100001E058D083C0C9FF0001846B0001802B25
:100B200054D0C5AC03D080C082F011D000018451F4
:100B3000842BEA6A860FE96E000EEA22EF50C96E36
:100B4000000185510001845D02E10001802B3DD050
:100B5000C5AC03D080C082F003D0C5840001806B97
:100B600034D0010E00018311C96E0001846B0001B5
:100B7000802B2BD0C5AC03D080C082F003D0C586BB
:100B80000001802B22D000018451842BEA6A860F59
:100B9000E96E000EEA22C9CFEFFF00018551000186
:100BA000845D04E2C59A0001800703D0C58A000174
:100BB000802BC5880AD0C5840001802B06D0000197
:100BC000806B03D00001806B00D09E96A1A606D05A
:100BD000A196400E000180110001826FE55200EEE7
:100BE0001BF0080EE80403E3E5CFEDFFFBD700EEB2
:100BF00013F0140EE80403E3E5CFEDFFFBD7E5CFD8
:100C0000FAFFE5CFF4FFE5CFF3FFE5CFF5FFE5CF42
:100C1000F7FFE5CFF6FFE5CFEAFFE5CFE9FFE5CF48
:100C2000DAFF1100D8CFE4FFE0CFE4FFE46EDACFC3
:100C3000E4FFE2CFDAFFE9CFE4FFEACFE4FFE652D8
:100C40009EAC2CD19E9CC4CF06F1C3CF05F101010F
:100C50000451EA6AA00FE96E010EEA22EF50020881
:100C600001E09BD001010C3504E20B510308000E9A
:100C70000C5501E391D005C105F106C106F1010152
:100C8000FF0ED8800557030E0657010E0101D890BC
:100C900005370637E806FBE10101900E055D010E00
:100CA000065905E20101900E056F010E066F900EC8
:100CB0000101055F010E0101065B0101FF0ED880F5
:100CC0000555030E065504E201010569030E066F82
:100CD00001010451E96EEA6AD890E936EA360F0E4E
:100CE000E926010EEA22EE5001010527EE5001012E
:100CF000062305C11CF006C11DF0010E0F0B05E017
:100D0000D8901D321C32E806FBE101010451E96E66
:100D1000EA6AD890E936EA360F0EE926010EEA2291
:100D20001CC0EEFF1DC0EDFF01010B6B0C6B010140
:100D30000451090A2EE0010A29E00F0A24E0010A01
:100D40001FE0030A1AE0010A15E0070A10E0010A91
:100D50000BE0030A06E0010A01E01ED092908980B0
:100D60001BD09292898218D09294898415D0929641
:100D7000898612D0929A898A0FD093948A840CD053
:100D800093968A8609D093928A8206D093988A880D
:100D900003D093908A8000D02CD001010451E96ED9
:100DA000EA6AD890E936EA360F0EE926010EEA2201
:100DB000EE5001010527EE500101062305C11CF08C
:100DC00006C11DF0010E0F0B05E0D8901D321C323C
:100DD000E806FBE101010451E96EEA6AD890E936C0
:100DE000EA360F0EE926010EEA221CC0EEFF1DC0F6
:100DF000EDFF0A0E1C6E0101042B01010451D88085
:100E00001C5402E30101046B01010451EA6AA00FC2
:100E1000E96E010EEA22EF50020837E101010B2BC7
:100E2000000E0C2301010C3504E20B510308000EE7
:100E30000C552BE201010451090A25E0010A21E0C9
:100E40000F0A1DE0010A19E0030A15E0010A11E08A
:100E5000070A0DE0010A09E0030A05E0010A01E0C2
:100E600014D0928012D0928210D092840ED09286AA
:100E70000CD0928A0AD0938408D0938606D09382AD
:100E800004D0938802D0938000D001010451EA6A13
:100E9000CE0FE96E010EEA22EF50C26E9EAA98D0E4
:100EA000ABA403D0AECFEEF093D0ABA203D0AB98FF
:100EB000AB888ED0AECFEEF00101010E0D1901E12D
:100EC0000E5173E00001EF51080A66E00F0A5AE084
:100ED000010A4EE0030A42E0010A36E0070A2AE06E
:100EE000010A1EE0030A12E0010A01E05ED0520E80
:100EF0000001EE5D03E10001010EEF6F560E0001EF
:100F0000EE5D03E10001050EEF6F4FD0650E0001AD
:100F1000EE5D02E1020E01D0000E0001EF6F45D040
:100F2000730E0001EE5D02E1030E01D0000E000120
:100F3000EF6F3BD0650E0001EE5D02E1040E01D0C3
:100F4000000E0001EF6F31D0740E0001EE5D02E182
:100F5000070E01D0000E0001EF6F27D0650E0001D3
:100F6000EE5D02E1060E01D0000E0001EF6F1DD014
:100F7000720E0001EE5D02E1070E01D0000E0001CD
:100F8000EF6F13D00D0E0001EE5D02E1080E01D0EF
:100F9000000E0001EF6F09D00A0E0001EE5D02E1C4
:100FA000FF0002D00001EF6B00D00001EC51EA6AB3
:100FB000C90FE96E000EEA22EEC0EFFF1F0E1C6E95
:100FC0000001EC2B0001EC511C5C02E20001EC6B17
:100FD000E552E5CFEAFFE5CFE9FFE5CFDAFFE550DF
:100FE000E5CFE0FFE5CFD8FF1000D9CFE6FFE1CF96
:100FF000D9FF030EE126F00ED36EC00E9B6E0001EA
:10100000EF6B01010D6B0E6B006B016B026B036BE1
:10101000010EDB6A020EDB6A010EDBCF14F0020E5A
:10102000DBCF15F0D890155004E61A0E145C000EB4
:1010300015581AE2010EDBCFE9FF020EDBCFEAFF03
:10104000D890E936EA36D890E936EA36270EE9260E
:10105000010EEA22EE6AEE6AEE6AEE6A010EDB2A01
:10106000020EDAE3DB2AD8D7010EDB6A020EDB6A56
:10107000010EDBCF14F0020EDBCF15F0D890155027
:1010800004E6040E145C000E15581AE2010EDBCFC4
:10109000E9FF020EDBCFEAFFD890E936EA36D890B6
:1010A000E936EA368F0EE926010EEA22EE6AEE6A8A
:1010B000EE6AEE6A010EDB2A020EDAE3DB2AD8D7EB
:1010C000010EDB6A020EDB6A010EDBCF14F0020EAA
:1010D000DBCF15F0D890155004E60A0E145C000E14
:1010E000155811E2010EDBCFE9FF020EDBCFEAFF5C
:1010F000A00EE926010EEA22010EEF6EDB2A020E97
:10110000E3E3DB2AE1D70101236B246B256B266B1C
:10111000046B0B6B0C6BAA6BAB6B096B0A6B076BED
:10112000086B896A3F0EDF6EDF50926E8A6A1F0E6F
:10113000DF6E0101E01DDF16E66A080EE66E43EC85
:101140000DF0E552E5520101A86B0101D81DDF1633
:10115000E66A090EE66E43EC0DF0E552E552010138
:10116000A96BDF50936E180E8B6E980E946E020E64
:10117000D56EFC0ED76E3F0ED66ED58EF294F28AE7
:10118000F184B00EB16EA292A192A092B1809D9214
:10119000010ECA6ECC68CB68CA849F6F000E256FA3
:1011A000266B236F246BE66EE66AE66EE66AC5D8A8
:1011B000E552E552E552E5529F9C9D8CBE0EC06EF5
:1011C000020EC16E01010451EA6ACE0FE96E010EF2
:1011D000EA22EF50C26EF6EC1FF058EC12F0D09CF1
:1011E000D08EF28EF28C140E146E510E156E166A9D
:1011F00014C0E6FFE66E16C0E6FF45EC20F0E552AF
:10120000E552E55236EC22F0010E0101006F016B50
:101210008050100B100A01E0010E0108F9E00101F5
:101220000D510E1103E1010E0D6F0E6BC90EE66E2E
:10123000000EE66EE66878EC13F0E552E552E552F2
:10124000898E030EE15C02E2E16AE552E16EE5524D
:10125000E7CFD9FF1200C9DEF40EE66E010EE66E8E
:10126000D8D8E552E55234EC18F00101096B0A6B4D
:101270008BEC20F0000902E091EC20F0070E010158
:101280000D1901E10E5156E0050E0D1901E10E5147
:101290004CE0060E0D1901E10E5147E0020E0D194A
:1012A00001E10E5116E0030E0D1901E10E5111E09E
:1012B000010E0D19DDE10E51DBE1CC51095DCD517F
:1012C0000A59D6E3096B0A6BAAA1D2D78FEC22F098
:1012D000CFD7070E146E510E156E166A14C0E6FFB6
:1012E000E66E16C0E6FF010EE66E14EC13F0E55252
:1012F000E552E552E552F80E146E500E156E166A60
:1013000014C0E6FFE66E16C0E6FF020EE66E14ECB1
:1013100013F0E552E552E552E55273EC2AF0898E5E
:10132000010E01010D6F0E6BA3D7BBEC0EF048EC64
:101330000FF09ED777EC10F09BD7D9CFE6FFE1CF27
:10134000D9FF040EE126FD0EDBCF14F0FE0EDBCF3D
:1013500015F0FF0ED8801454030E155407E2FD0E4D
:10136000DB68030EF36EFE0EF3CFDBFFFB0EDBCF6D
:1013700014F0FC0EDBCF15F0FF0ED8801454030ED2
:10138000155407E2FB0EDB68030EF36EFC0EF3CF81
:10139000DBFFFB0EDBCF14F0FC0EDBCF15F0060EEF
:1013A000D89014361536E804FBE114C0DEFF15C0F2
:1013B000DDFFFD0EDBCF14F0FE0EDBCF15F0060EC9
:1013C000D89014361536E804FBE1020E14C0DBFF9A
:1013D000030E15C0DBFF010EDB50BE6E030EDB50AB
:1013E000BB6EDF50E840E8403F0B300B0C09BD6E90
:1013F000020EDB40E8403F0B300B0C09BA6E040EC6
:10140000E15C02E2E16AE552E16EE552E7CFD9FF25
:101410001200D9CFE6FFE1CFD9FF020EE126F29A02
:101420000101096B0A6BF28AF29A09C1DEFF0AC157
:10143000DDFFF28ADECF14F0DDCF15F0FD0EDBCF3D
:1014400016F0FE0EDBCF17F01650145C175015582F
:10145000EBE3020EE15C02E2E16AE552E16EE55285
:10146000E7CFD9FF1200D9CFE6FFE1CFD9FF0A0EAF
:10147000E12623C114F024C115F0FD0EDB50141831
:1014800011E1FE0EDB5015180DE125C116F026C145
:1014900017F0FB0EDB50161805E1FC0EDB50171899
:1014A00001E1E7D2000EE66EE66AE66EE66A45DF27
:1014B000E552E552E552E5528B9A8B908A9C8A9AC6
:1014C000A092A192B190B368050EB26EB180080EE1
:1014D000FAC0DBFFFD0EDBCF14F0FE0EDBCF15F004
:1014E000153401E387D014500008000E155401E3B1
:1014F00081D0010EF36E040EF3CFDBFF060EDB6A24
:10150000080E086E096AFD0EDBCF0DF0FE0EDBCF74
:101510000EF01BEC28F006C0DEFF07C0DDFF000167
:10152000000ED880FA55000EFB5501E3F8D0DECF4F
:1015300014F0DDCF15F015341EE214509008010EA2
:10154000155419E2DECF16F0DDCF17F0900E165EBF
:10155000010E175A16C008F017C009F0FEC00DF0B2
:10156000FFC00EF094EC2AF00001FA510824146E2A
:10157000FB51092027D0DECF14F0DDCF15F0900EFF
:10158000D8801456010E1556FA51145CFB511558AB
:101590001CE2DECF16F0DDCF17F0900ED880165685
:1015A000010E175616C008F017C009F0FEC00DF066
:1015B000FFC00EF094EC2AF000010850FA5D146EA2
:1015C0000950FB59080E14C0DBFF080EDB50146EE7
:1015D000156ADECF16F0DDCF17F015501718E8AEFC
:1015E00002D0173404D01650145C1750155801E37C
:1015F00096D089D0FD0EDBCF14F0FE0EDBCF15F0B8
:101600000001800E151401E18FD0040EDB6A010E7B
:10161000F36E060EF3CFDBFFF80E086E0968FD0EC1
:10162000DBCF0DF0FE0EDBCF0EF01BEC28F006C07A
:10163000DEFF07C0DDFF0001000ED880FA55000E66
:10164000FB556DE2DECF14F0DDCF15F015341EE250
:1016500014509008010E155419E2DECF16F0DDCFBC
:1016600017F0900E165E010E175A16C008F017C03C
:1016700009F0FEC00DF0FFC00EF094EC2AF000015E
:10168000FA510824146EFB51092027D0DECF14F044
:10169000DDCF15F0900ED8801456010E1556FA5174
:1016A000145CFB5115581CE2DECF16F0DDCF17F0AD
:1016B000900ED8801656010E175616C008F017C0A7
:1016C00009F0FEC00DF0FFC00EF094EC2AF000010E
:1016D0000850FA5D146E0950FB59080E14C0DBFF68
:1016E000080EDB50146E156ADECF16F0DDCF17F052
:1016F00015501718E8AE02D0173404D01650145CF9
:10170000175015580CE2080EDB50146E156AD9CF2D
:10171000E9FFDACFEAFFE850EE5E1550ED5A640EAD
:10172000DE26000EDD220FD001019F510CE0010EDC
:10173000F36E040EF3CFDBFF010EF36E060EF3CF54
:10174000DBFFDE6ADD6A090EFCC0DBFFFB0EDBCFD0
:1017500014F0FC0EDBCF15F0153401E393D01450D8
:101760000008000E155401E38DD0010EF36E050E36
:10177000F3CFDBFF070EDB6A080E086E096AFB0E6B
:10178000DBCF0DF0FC0EDBCF0EF01BEC28F0020ED1
:1017900006C0DBFF030E07C0DBFF0001000ED88090
:1017A000FC55000EFD5501E310D1020EDBCF14F005
:1017B000030EDBCF15F0153420E214509008010E13
:1017C00015541BE2020EDBCF16F0030EDBCF17F031
:1017D000900E165E010E175A16C008F017C009F0D9
:1017E000FEC00DF0FFC00EF094EC2AF00001FC5199
:1017F0000824146EFD5109202BD0020EDBCF14F00B
:10180000030EDBCF15F0900ED8801456010E15563E
:10181000FC51145CFD5115581EE2020EDBCF16F090
:10182000030EDBCF17F0900ED8801656010E175618
:1018300016C008F017C009F0FEC00DF0FFC00EF092
:1018400094EC2AF000010850FC5D146E0950FD591B
:10185000090E14C0DBFF090EDB50146E156A020E70
:10186000DBCF16F0030EDBCF17F015501718E8AEDC
:1018700002D0173404D01650145C1750155801E3E9
:10188000A4D096D0FB0EDBCF14F0FC0EDBCF15F00E
:101890000001800E151401E1A2D0050EDB6A010ED5
:1018A000F36E070EF3CFDBFFF80E086E0968FB0E30
:1018B000DBCF0DF0FC0EDBCF0EF01BEC28F0020EA0
:1018C00006C0DBFF030E07C0DBFF0001000ED8805F
:1018D000FC55000EFD5501E378D0020EDBCF14F06D
:1018E000030EDBCF15F0153420E214509008010EE2
:1018F00015541BE2020EDBCF16F0030EDBCF17F000
:10190000900E165E010E175A16C008F017C009F0A7
:10191000FEC00DF0FFC00EF094EC2AF00001FC5167
:101920000824146EFD5109202BD0020EDBCF14F0D9
:10193000030EDBCF15F0900ED8801456010E15560D
:10194000FC51145CFD5115581EE2020EDBCF16F05F
:10195000030EDBCF17F0900ED8801656010E1756E7
:1019600016C008F017C009F0FEC00DF0FFC00EF061
:1019700094EC2AF000010850FC5D146E0950FD59EA
:10198000090E14C0DBFF090EDB50146E156A020E3F
:10199000DBCF16F0030EDBCF17F015501718E8AEAB
:1019A00002D0173404D01650145C175015580DE2AD
:1019B000090EDB50146E156AD950020FE96EDACFAA
:1019C000EAFF1450EE5E1550ED5AD950020FE96E41
:1019D000DACFEAFF640EEE26000EED2211D00101EF
:1019E0009F510EE0010EF36E050EF3CFDBFF010EEB
:1019F000F36E070EF3CFDBFF020EDB6A030EDB6A2A
:101A00000101010E9F6FFD0EDBCF23F1FE0EDBCF38
:101A100024F1FB0EDBCF25F1FC0EDBCF26F1A1A2DA
:101A2000FED7A192020EDBCFE6FF030EDBCFE6FF6F
:101A3000DECFE6FFDDCFE6FF80DCE552E552E55282
:101A4000E552040EDB50E8B08B8AE8A08B9A060EB4
:101A5000DB50E8B08B80E8A08B90050EDB50E8B03F
:101A60008A8CE8A08A9C070EDB50E8B08A8AE8A03E
:101A70008A9A0A0EE15C02E2E16AE552E16EE55201
:101A8000E7CFD9FF1200D9CFE6FFE1CFD9FFFE0E95
:101A9000DB50090A5AE0010A50E00F0A46E0010A49
:101AA0003CE0030A32E0010A28E0070A1EE0010ACE
:101AB00014E0030A0AE0010A4EE1FD0EDB50E8B033
:101AC0008980E8B048D0899046D0FD0EDB50E8B060
:101AD0008982E8B040D089923ED0FD0EDB50E8B05C
:101AE0008984E8B038D0899436D0FD0EDB50E8B058
:101AF0008986E8B030D089962ED0FD0EDB50E8B054
:101B0000898AE8B028D0899A26D0FD0EDB50E8B04B
:101B10008A84E8B020D08A941ED0FD0EDB50E8B055
:101B20008A86E8B018D08A9616D0FD0EDB50E8B051
:101B30008A82E8B010D08A920ED0FD0EDB50E8B059
:101B40008A88E8B008D08A9806D0FD0EDB50E8B04D
:101B50008A80E8A08A90E552E7CFD9FF1200D9CF5A
:101B6000E6FFE1CFD9FFE652DF6AFE0EDB50090A3D
:101B700035E0010A2EE00F0A28E0010A22E0030AFC
:101B80001CE0010A16E0070A10E0010A0AE0030A55
:101B900004E0010A26E1895022D08950020B20E09E
:101BA0001BD08950040B1CE017D08950080B18E09B
:101BB00013D08950200B14E00FD08A50040B10E092
:101BC0000BD08A50080B0CE007D08A50020B08E0BB
:101BD00003D08A50100B04E0010E02D08A50010B92
:101BE000DF6EDF50E552E552E7CFD9FF1200D9CFC3
:101BF000E6FFE1CFD9FFFE0EDB50030A1EE0010A2B
:101C000014E0030A0AE0010A1EE1FD0EDB50E8B011
:101C1000898EE8B018D0899E16D0FD0EDB50E8B052
:101C2000898CE8B010D0899C0ED0FD0EDB50E8B056
:101C30008A80E8B008D08A9006D0FD0EDB50E8B06C
:101C40008A88E8A08A98E552E7CFD9FF1200D9CF59
:101C5000E6FFE1CFD9FFE652DF6AFE0EDB50030A52
:101C600013E0010A0DE0030A06E0010A12E18950BF
:101C7000800B08E003D08950400B04E0010E02D035
:101C80008A50010BDF6E05D08A50100B01E0010E67
:101C9000DF6EDF50E552E552E7CFD9FF1200D9CF12
:101CA000E6FFE1CFD9FFF29AFE0EDB50040DF3CF31
:101CB000E9FFF4CFEAFF8F0EE926010EEA22EE6A71
:101CC000EE6AEE6AEE6AF28AE552E7CFD9FF1200B9
:101CD000D9CFE6FFE1CFD9FF040EE126F29AFE0E3E
:101CE000DB50040DF3CFE9FFF4CFEAFF8F0EE926B6
:101CF000010EEA22EECFDFFF010EEECFDBFF020E78
:101D0000EECFDBFF030EEECFDBFFF28ADECF06F075
:101D1000DECF07F0DECF08F0DDCF09F0DD52DD5277
:101D2000040EE15C02E2E16AE552E16EE552E7CFC2
:101D3000D9FF1200B36AB26AB1801200D9CFE6FFB0
:101D4000E1CFD9FF020EE126B250DF6E010EB3CF14
:101D5000DBFFDECF14F0DDCF15F014C0F3FF15C0AC
:101D6000F4FF020EE15C02E2E16AE552E16EE55247
:101D7000E7CFD9FF1200E66AE66A39DFE552E5529D
:101D8000E66A010EE66E33DFE552E552E66A020EC0
:101D9000E66E2DDFE552E552E66A030EE66E27DFBA
:101DA000E552E552050E01010D6F0E6B096B0A6BD2
:101DB000E80E146E500E156E166A14C0E6FFE66E3D
:101DC00016C0E6FF010EE66E14EC13F0E552E55284
:101DD000E552E5520101050E0D1959E10E5157E189
:101DE000320ED8800F55010E105503E2010EE66E3B
:101DF00001D0E66AE66AFBDEE552E5520101320EE9
:101E0000D8801155010E125503E2010EE66E02D084
:101E1000E66A010EE66EEBDEE552E5520101FF0EC9
:101E2000D8801355010E145503E2010EE66E01D061
:101E3000E66A020EE66EDBDEE552E5520101FF0EB8
:101E4000D8801555010E165503E2010EE66E01D03D
:101E5000E66A030EE66ECBDEE552E5520101640E42
:101E6000D8800955000E0A55B5E2096B0A6B030EBE
:101E7000E66E020EE66E010EE66EE66A020EE66E93
:101E800039EC15F0146E050EE15E1450A3D7120064
:101E9000DC0E146E500E156E166A14C0E6FFE66E68
:101EA00016C0E6FF010EE66E14EC13F0E552E552A3
:101EB000E552E552CC0E146E500E156E166A14C023
:101EC000E6FFE66E16C0E6FF020EE66E14EC13F0B7
:101ED000E552E552E552E552E66AE66A88DEE552E9
:101EE000E552E66A010EE66E82DEE552E552E66AEA
:101EF000020EE66E7CDEE552E552E66A030EE66E01
:101F000076DEE552E552010EE66EE66A70DEE552D7
:101F1000E552320EE66EE66AE66EE66A33EC0AF0E9
:101F2000E552E552E552E552E80EE66E030EE66E26
:101F300009EC0AF0E552E552E66AE66A58DEE55237
:101F4000E552000EE66EE66AE66EE66A33EC0AF0EB
:101F5000E552E552E552E552C80EE66EE66A09EC36
:101F60000AF0E552E552010EE66EE66E40DEE552FD
:101F7000E552CE0EE66EE668E66EE66833EC0AF0F1
:101F8000E552E552E552E552E80EE66E030EE66EC6
:101F900009EC0AF0E552E552E66A010EE66E27DE2C
:101FA000E552E552000EE66EE66AE66EE66A33EC4E
:101FB0000AF0E552E552E552E552C80EE66EE66AD1
:101FC00009EC0AF0E552E552010EE66E020EE66EED
:101FD0000EDEE552E552320EE66EE66ACE0EE66E93
:101FE000E66833EC0AF0E552E552E552E552E80EB8
:101FF000E66E030EE66E09EC0AF0E552E552E66A7B
:10200000020EE66EF4DDE552E552000EE66EE66A7B
:10201000E66EE66A33EC0AF0E552E552E552E55227
:10202000C80EE66EE66A09EC0AF0E552E552010ECA
:10203000E66E030EE66EDBDDE552E552CE0EE66E91
:10204000E668320EE66EE66A33EC0AF0E552E552D7
:10205000E552E552E80EE66E030EE66E09EC0AF074
:10206000E552E552E66A030EE66EC1DDE552E55241
:10207000000EE66EE66AE66EE66A33EC0AF0E552BA
:10208000E552E552E552320EE66EE66A000EE66E65
:10209000E66A33EC0AF0E552E552E552E552E80E05
:1020A000E66E030EE66E09EC0AF0E552E552000E0C
:1020B000E66EE66A320EE66EE66A33EC0AF0E55248
:1020C000E552E552E552E80EE66E030EE66E09ECC7
:1020D0000AF0E552E552000EE66EE66AE66EE66A42
:1020E00033EC0AF0E552E552E552E55212008BEC72
:1020F00020F0000902E091EC20F00101080E0D191A
:1021000001E080D00E5101E07DD0010EE66EE66A5E
:102110006EDDE552E552320EE66EE66AE66EE66A7E
:1021200033EC0AF0E552E552E552E552D00EE66E88
:10213000070EE66E09EC0AF0E552E552640EE66E13
:10214000E66AE66EE66A33EC0AF0E552E552E552DD
:10215000E552E80EE66E030EE66E09EC0AF0E55273
:10216000E552010EE66E030EE66E41DDE552E552E4
:10217000000EE66EE66AE66EE66A33EC0AF0E552B9
:10218000E552E552E552F40EE66E010EE66E09ECFC
:102190000AF0E552E552CE0EE66EE668E66EE668B7
:1021A00033EC0AF0E552E552E552E552D00EE66E08
:1021B000070EE66E09EC0AF0E552E5529C0EE66E5B
:1021C000E668E66EE66833EC0AF0E552E552E55261
:1021D000E552E80EE66E030EE66E09EC0AF0E552F3
:1021E000E552E66A030EE66E02DDE552E552000EA8
:1021F000E66EE66AE66EE66A33EC0AF0E552E55210
:10220000E552E552070E01010D6F0E6B70D7D9CF65
:10221000E6FFE1CFD9FF040EE126FD0EDBCF14F07F
:10222000FE0EDBCF15F0B40E145C000E155869E2FB
:10223000D950FD0FE96EFF0EDA20EA6EEE50ED1078
:1022400007E1010EF36EFD0EF3CFDBFFFE0EDB6A3E
:10225000FD0EDBCF14F0FE0EDBCF15F0166A176A09
:10226000410E145E000E155A165A175A14C0DFFF9D
:10227000010E15C0DBFF020E16C0DBFF030E17C0F8
:10228000DBFFD9CFE9FFDACFEAFFC80E0B6E0C6A8D
:102290000D6A0E6AEECF06F0EECF07F0EECF08F033
:1022A000EFCF09F0E4EC29F005C0EDFF04C0EDFF2D
:1022B00003C0EDFF02C0EFFFD9CFE9FFDACFEAFF9D
:1022C000730E0B6E0C6A0D6A0E6AEECF06F0EECF3F
:1022D00007F0EECF08F0EFCF09F0E7EC27F009C0E8
:1022E000EDFF08C0EDFF07C0EDFF06C0EFFFD9CF3F
:1022F000E9FFDACFEAFF2C0EEE5E010EEE5A000E79
:1023000064D0FD0EDBCF14F0FE0EDBCF15F0BE0E59
:10231000145C020E15585CE2FD0EDBCF14F0FE0ECD
:10232000DBCF15F0166A176AB40E145E000E155A4C
:10233000165A175A14C0DFFF010E15C0DBFF020E3C
:1023400016C0DBFF030E17C0DBFFD9CFE9FFDACFE2
:10235000EAFF580E0B6E020E0C6E0D6A0E6AEECF7F
:1023600006F0EECF07F0EECF08F0EFCF09F0E4EC87
:1023700029F005C0EDFF04C0EDFF03C0EDFF02C072
:10238000EFFFD9CFE9FFDACFEAFF100E0B6E020E96
:102390000C6E0D6A0E6AEECF06F0EECF07F0EECFB0
:1023A00008F0EFCF09F0E7EC27F009C0EDFF08C017
:1023B000EDFF07C0EDFF06C0EFFFD9CFE9FFDACF91
:1023C000EAFF640EEE5E000EEE5AEE5AEE5A5DD053
:1023D000FD0EDBCF14F0FE0EDBCF15F0166A176A88
:1023E000BE0E145E020E155A000E165A175A14C06D
:1023F000DFFF010E15C0DBFF020E16C0DBFF030E70
:1024000017C0DBFFD9CFE9FFDACFEAFFF40E0B6E7E
:10241000010E0C6E0D6A0E6AEECF06F0EECF07F0DD
:10242000EECF08F0EFCF09F0E4EC29F005C0EDFFA6
:1024300004C0EDFF03C0EDFF02C0EFFFD9CFE9FFFD
:10244000DACFEAFF0F0E0B6E010E0C6E0D6A0E6AEC
:10245000EECF06F0EECF07F0EECF08F0EFCF09F0A9
:10246000E7EC27F009C0EDFF08C0EDFF07C0EDFF66
:1024700006C0EFFFD9CFE9FFDACFEAFFF40EEE2670
:10248000010EEE22000EEE22EE22DFCF14F0010E3E
:10249000DBCF15F014C0F3FF15C0F4FF040EE15CB0
:1024A00002E2E16AE552E16EE552E7CFD9FF1200A0
:1024B000C76A110EC86E280EC66E400EC56E948691
:1024C00094889F869E969D86A286A196A08606D811
:1024D000A00EE66EDAEC2AF0E5521200D9CFE6FF44
:1024E000E1CFD9FFE652C950DF6EC69AC69CC69EA0
:1024F000C59CC59A0001846B82A80CD89E96A196B3
:102500000001806B816B826BC68AE552E552E7CF92
:10251000D9FF1200D9CFE6FFE1CFD9FFE6528A8872
:10252000C69ADF6A090EDF5C0EE29496020EE66E32
:10253000F4EC2AF0E5529486020EE66EF4EC2AF0F2
:10254000E552DF2AEFD7E552E552E7CFD9FF120077
:102550000001816B1F0EC51403E1C750040B07E097
:102560000A0E146E8151145CF5E258EF12F012005D
:10257000D9CFE6FFE1CFD9FFE652DF6A020E0001B4
:10258000815DFCE3E5DFFE0EDBCF83F0FD0EDBCFEC
:1025900085F00001816B010E806FC580805112E0D3
:1025A000020E146E8151145C03E2800E8011826F62
:1025B0008251F4E0C5847CDFDF2A050EDF5CE9E3AD
:1025C000000E02D0816B010EE552E552E7CFD9FF34
:1025D0001200D9CFE6FFE1CFD9FF020E0001815DE5
:1025E000FCE3B6DFFE0EDB5001090001836FFD0E38
:1025F000DBCF85F0816B0B0E806FC58080510EE0C4
:10260000020E146E8151145C03E2800E8011826F01
:102610008251F4E0C5844CDF000E02D0816B010EC4
:10262000E552E7CFD9FF1200D9CFE6FFE1CFD9FFBE
:10263000E652DF6ADF50DF2AEA6A860FE96E000E93
:10264000EA22FE0EDBCFEFFF120EDF5C3EE2FB0E56
:10265000DBCFF6FFFC0EDBCFF7FFFD0EDBCFF8FF85
:102660000800F5501EE0D950FB0FE96EFF0EDA208E
:10267000EA6EEFCFF6FFEE2AEFCFF7FF000EEE2265
:10268000EFCFF8FFEE220800F550E66EDF50DF2AAC
:10269000EA6A860FE96E000EEA22E552E750EF6E15
:1026A000D3D7DF0409E1DF50DF2AEA6A860FE96E3B
:1026B000000EEA22200EEF6EDF50DF2AEA6A860F54
:1026C000E96E000EEA22EF6ABFD7DFCFE6FF160EF3
:1026D000E66E4EDFE552E552140EE66EE66A09EC50
:1026E0000AF0E552E552E552E552E7CFD9FF120074
:1026F000D9CFE6FFE1CFD9FFE652DF6ADF50DF2A0C
:10270000EA6A860FE96E000EEA22FE0EDBCFEFFFCB
:10271000120EDF5C32E2FC0EDBCFE9FFFD0EDBCFF9
:10272000EAFFEF5016E0FC0EDBCFE9FFDB2AFD0EDF
:10273000DBCFEAFF01E3DB2AEF50E66EDF50DF2A52
:10274000EA6A860FE96E000EEA22E552E750EF6E64
:10275000DFD7DF0409E1DF50DF2AEA6A860FE96E7E
:10276000000EEA22200EEF6EDF50DF2AEA6A860FA3
:10277000E96E000EEA22EF6ACBD7DFCFE6FF160E36
:10278000E66EF6DEE552E552140EE66EE66A09ECF8
:102790000AF0E552E552E552E552E7CFD9FF1200C3
:1027A000D9CFE6FFE1CFD9FFFD0EDB50040DF3CF0B
:1027B000E9FFF4CFEAFF270EE926010EEA22EECF69
:1027C000E6FFEECFE6FFEECFE6FFEFCFE6FFFD0E32
:1027D000DB50410FE66EE66A840E146E510E156EE4
:1027E000166A14C0E6FFE66E16C0E6FFB80EE66E87
:1027F000000EE66EFDEC28F0176E0B0EE15E175032
:10280000B80EE66E000EE66EFE0EDBCFE6FF70DF62
:10281000E552E552E552E552E7CFD9FF1200D9CF94
:10282000E6FFE1CFD9FFFC0EDB50040DF3CFE9FF4B
:10283000F4CFEAFF270EE926010EEA22EECFE6FFEB
:10284000EECFE6FFEECFE6FFEFCFE6FFFC0EDB506C
:10285000410FE66EE66AFD0EDB50040DF3CFE9FF93
:10286000F4CFEAFF270EE926010EEA22EECFE6FFBB
:10287000EECFE6FFEECFE6FFEFCFE6FFFD0EDB503B
:10288000410FE66EE66A730E146E510E156E166AEF
:1028900014C0E6FFE66E16C0E6FFB80EE66E000E48
:1028A000E66EFDEC28F0176E110EE15E1750B80EC3
:1028B000E66E000EE66EFE0EDBCFE6FF19DFE55298
:1028C000E552E552E552E7CFD9FF1200D9CFE6FF36
:1028D000E1CFD9FFFB0EDB50040DF3CFE9FFF4CFBE
:1028E000EAFF270EE926010EEA22EECFE6FFEECF41
:1028F000E6FFEECFE6FFEFCFE6FFFC0EDB50040D68
:10290000F3CFE9FFF4CFEAFF270EE926010EEA2212
:10291000EECFE6FFEECFE6FFEECFE6FFEFCFE6FF2E
:10292000FD0EDB50040DF3CFE9FFF4CFEAFF270ED5
:10293000E926010EEA22EECFE6FFEECFE6FFEECF6C
:10294000E6FFEFCFE6FF620E146E510E156E166AAB
:1029500014C0E6FFE66E16C0E6FFB80EE66E000E87
:10296000E66EFDEC28F0176E110EE15E1750B80E02
:10297000E66E000EE66EFE0EDBCFE6FFB9DEE55238
:10298000E552E552E552E7CFD9FF1200D9CFE6FF75
:10299000E1CFD9FFFA0EDB50040DF3CFE9FFF4CFFE
:1029A000EAFF270EE926010EEA22EECFE6FFEECF80
:1029B000E6FFEECFE6FFEFCFE6FFFB0EDB50040DA8
:1029C000F3CFE9FFF4CFEAFF270EE926010EEA2252
:1029D000EECFE6FFEECFE6FFEECFE6FFEFCFE6FF6E
:1029E000FC0EDB50040DF3CFE9FFF4CFEAFF270E16
:1029F000E926010EEA22EECFE6FFEECFE6FFEECFAC
:102A0000E6FFEFCFE6FFFD0EDB50040DF3CFE9FF4D
:102A1000F4CFEAFF270EE926010EEA22EECFE6FF09
:102A2000EECFE6FFEECFE6FFEFCFE6FF4E0E146EE1
:102A3000510E156E166A14C0E6FFE66E16C0E6FF6C
:102A4000B80EE66E000EE66EFDEC28F0176E150E61
:102A5000E15E1750B80EE66E000EE66EFE0EDBCF9E
:102A6000E6FF46DEE552E552E552E552E7CFD9FFF3
:102A70001200D9CFE6FFE1CFD9FF0C0EE126090EF7
:102A8000146EFD0EDB50145C02E2FD0EDB6AFD0EDF
:102A9000DB50FD0EEA6ADB34FE0BEA36E96E0F0E00
:102AA000E926010EEA22EECF06F0EFCF07F0086A22
:102AB000096A640E0B6E0C6A0D6A0E6AE4EC29F06A
:102AC00002C006F003C007F004C008F005C009F01A
:102AD000FA0E0B6E030E0C6E0D6A0E6AE7EC27F011
:102AE000080E06C0DBFF090E07C0DBFF0A0E08C098
:102AF000DBFF0B0E09C0DBFF080EDBCF07F0090E72
:102B0000DBCF08F00A0EDBCF09F00B0EDBCF0AF0AB
:102B10000A34000E0A1809E6D880640E0754000E25
:102B20000854000E0954000E0A540BE2640EF36EB2
:102B3000080EF3CFDBFF090EDB6A0A0EDB6A0B0E11
:102B4000DB6A080EDBCFDEFFDBCFDDFF090E146E84
:102B5000FC0EDB50145C05E2010EF36EFC0EF3CFAD
:102B6000DBFFFC0EDB50FC0EEA6ADB34FE0BEA36C0
:102B7000E96E0F0EE926010EEA22EECF06F0EFCF46
:102B800007F0086A096A640E0B6E0C6A0D6A0E6A19
:102B9000E4EC29F002C006F003C007F004C008F01E
:102BA00005C009F0FA0E0B6E030E0C6E0D6A0E6A6C
:102BB000E7EC27F0080E06C0DBFF090E07C0DBFFBD
:102BC0000A0E08C0DBFF0B0E09C0DBFF080EDBCFCF
:102BD00007F0090EDBCF08F00A0EDBCF09F00B0E71
:102BE000DBCF0AF00A34000E0A1809E6D880640E1A
:102BF0000754000E0854000E0954000E0A540BE24C
:102C0000640EF36E080EF3CFDBFF090EDB6A0A0ECB
:102C1000DB6A0B0EDB6A080EDBCF08F0090EDBCF98
:102C200009F0020E08C0DBFF030E09C0DBFF090E2E
:102C3000146EFB0EDB50145C05E2020EF36EFB0E0D
:102C4000F3CFDBFFFB0EDB50FB0EEA6ADB34FE0B3F
:102C5000EA36E96E0F0EE926010EEA22EECF06F003
:102C6000EFCF07F0086A096A640E0B6E0C6A0D6AF2
:102C70000E6AE4EC29F002C006F003C007F004C0BD
:102C800008F005C009F0FA0E0B6E030E0C6E0D6A0B
:102C90000E6AE7EC27F0080E06C0DBFF090E07C03E
:102CA000DBFF0A0E08C0DBFF0B0E09C0DBFF080EBE
:102CB000DBCF07F0090EDBCF08F00A0EDBCF09F0FF
:102CC0000B0EDBCF0AF00A34000E0A1809E6D88092
:102CD000640E0754000E0854000E0954000E0A54E6
:102CE0000BE2640EF36E080EF3CFDBFF090EDB6A16
:102CF0000A0EDB6A0B0EDB6A080EDBCF08F0090E4A
:102D0000DBCF09F0040E08C0DBFF050E09C0DBFFB6
:102D1000090E146EFA0EDB50145C05E2030EF36E1E
:102D2000FA0EF3CFDBFFFA0EDB50FA0EEA6ADB3461
:102D3000FE0BEA36E96E0F0EE926010EEA22EECF0F
:102D400006F0EFCF07F0086A096A640E0B6E0C6A92
:102D50000D6A0E6AE4EC29F002C006F003C007F029
:102D600004C008F005C009F0FA0E0B6E030E0C6EDD
:102D70000D6A0E6AE7EC27F0080E06C0DBFF090EAD
:102D800007C0DBFF0A0E08C0DBFF0B0E09C0DBFF2C
:102D9000080EDBCF07F0090EDBCF08F00A0EDBCF01
:102DA00009F00B0EDBCF0AF00A34000E0A1809E610
:102DB000D880640E0754000E0854000E0954000E0B
:102DC0000A540BE2640EF36E080EF3CFDBFF090E1C
:102DD000DB6A0A0EDB6A0B0EDB6A080EDBCF08F03B
:102DE000090EDBCF09F0060E08C0DBFF070E09C095
:102DF000DBFF060EDBCFE6FF070EDBCFE6FF040EA0
:102E0000DBCFE6FF050EDBCFE6FF020EDBCFE6FFF2
:102E1000030EDBCFE6FFDECFE6FFDDCFE6FF3E0EA3
:102E2000146E510E156E166A14C0E6FFE66E16C0DB
:102E3000E6FFB80EE66E000EE66EFDEC28F0176EAB
:102E40000D0EE15E1750B80EE66E000EE66EFE0E39
:102E5000DBCFE6FF4DDCE552E552E5520C0EE15CBE
:102E600002E2E16AE552E16EE552E7CFD9FF1200D6
:102E7000D9CFE6FFE1CFD9FF040EE126FC0EDBCF70
:102E800016F0FD0EDBCF17F00001800E171402E0E4
:102E9000FF0E01D0010E146E156A14BE156814C021
:102EA000DEFF15C0DDFFFC0EDBCF14F0FD0EDBCF27
:102EB00015F0D890155004E6E80E145C030E155872
:102EC0005EE2DECF14F0DDCF15F0D950FC0FE96ED5
:102ED000FF0EDA20EA6E14C00DF015C00EF0EECF32
:102EE00008F0EDCF09F048EC28F006C0EEFF07C06F
:102EF000EDFFDF0EE66EE66AFC0EDBCF14F0FD0E92
:102F0000DBCF15F00A0E0D6E0E6A14C008F015C066
:102F100009F0C1EC27F004C014F005C015F004C09E
:102F2000E6FF05C0E6FFFC0EDBCF16F0FD0EDBCFA3
:102F300017F00A0E0D6E0E6A16C008F017C009F0E1
:102F4000C1EC27F008C016F009C017F008C0E6FF72
:102F500009C0E6FF340E186E510E196E1A6A18C0B9
:102F6000E6FFE66E1AC0E6FFB80EE66E000EE66EED
:102F7000FDEC28F01B6E0B0EE15E1B5014D02E0EE4
:102F8000146E510E156E166A14C0E6FFE66E16C07A
:102F9000E6FFB80EE66E000EE66EFDEC28F0176E4A
:102FA000050EE15E1750D9CFE9FFDACFEAFFFF0E39
:102FB000EE1844E1FF0EED1841E1020EDB6A030E4C
:102FC000DB6A020EDBCF14F0030EDBCF15F0D890D6
:102FD000155004E6080E145C000E155813E2020E9C
:102FE000DBCFE9FF030EDBCFEAFFB80EE926000EC8
:102FF000EA22EF50200806E1020EDB2A030EE1E38D
:10300000DB2ADFD7020EDBCF14F0030EDBCF15F087
:10301000153414E214500008000E15540FE2020E8D
:10302000DBCFE9FF030EDBCFEAFFE906000EEA5A29
:10303000B80EE926000EEA222D0EEF6EB80EE66EEF
:10304000000EE66EFE0EDBCFE6FF78EC13F0E552E5
:10305000E552E552040EE15C02E2E16AE552E16EFE
:10306000E552E7CFD9FF1200D9CFE6FFE1CFD9FF74
:10307000070EE126200E146E510E156E166A040E10
:1030800014C0DBFF050E15C0DBFF060E16C0DBFF0C
:10309000100EF36E020EF3CFDBFF030EDB6A040E9D
:1030A000DBCFF6FF050EDBCFF7FF060EDBCFF8FF19
:1030B0000800F5501CE0020EDBCF14F0030EDBCF4E
:1030C00015F015340AE214500008000E155405E2FC
:1030D000020EDB06030E01E2DB06D950040FE96E97
:1030E000DACFEAFFEE2A000EEE22EE22D8D7D95030
:1030F000020FE96EDACFEAFF020E0D6E0E6AEECF16
:1031000008F0EDCF09F0C1EC27F008C0EEFF09C0D0
:10311000EDFFDE6ADD6ADECF14F0DDCF15F0020EC2
:10312000DBCF16F0030EDBCF17F015501718E8AE03
:1031300002D0173404D01650145C175015580FE203
:10314000DECFE9FFDDCFEAFFB80EE926000EEA2266
:10315000200EEF6EDF2A010EDEE3DB2ADCD7200E25
:10316000146E510E156E166A040E14C0DBFF050EA8
:1031700015C0DBFF060E16C0DBFF040EDBCFF6FF2B
:10318000050EDBCFF7FF060EDBCFF8FF0800F5508A
:103190002AE0D950040FE96EDACFEAFFEFCFF6FF4D
:1031A000EE2AEFCFF7FF000EEE22EFCFF8FFEE2270
:1031B0000800F550E66EDFCFE9FFDF2A010EDBCF16
:1031C000EAFF01E3DB2AB80EE926000EEA22E55207
:1031D000E750EF6ED9CFE9FFDACFEAFF100EEE1815
:1031E000CCE1ED50CAE1DECFE9FFDDCFEAFFB80E5A
:1031F000E926000EEA22EF6AB80EE66E000EE66ED1
:10320000010EE66E78EC13F0E552E552E552640EDD
:10321000E66EE66A09EC0AF0E552E552170E146E06
:10322000510E156E166A040E14C0DBFF050E15C094
:10323000DBFF060E16C0DBFF100EF36E020EF3CF9F
:10324000DBFF030EDB6A040EDBCFF6FF050EDBCFE0
:10325000F7FF060EDBCFF8FF0800F5501CE0020E6A
:10326000DBCF14F0030EDBCF15F015340AE2145057
:103270000008000E155405E2020EDB06030E01E203
:10328000DB06D950040FE96EDACFEAFFEE2A000E12
:10329000EE22EE22D8D7D950020FE96EDACFEAFF3C
:1032A000020E0D6E0E6AEECF08F0EDCF09F0C1EC04
:1032B00027F008C0EEFF09C0EDFFDE6ADD6ADECF51
:1032C00014F0DDCF15F0020EDBCF16F0030EDBCFCE
:1032D00017F015501718E8AE02D0173404D0165066
:1032E000145C175015580FE2DECFE9FFDDCFEAFF7F
:1032F000B80EE926000EEA22200EEF6EDF2A010E3C
:10330000DEE3DB2ADCD7170E146E510E156E166A3B
:10331000040E14C0DBFF050E15C0DBFF060E16C041
:10332000DBFF040EDBCFF6FF050EDBCFF7FF060E4B
:10333000DBCFF8FF0800F5502AE0D950040FE96E02
:10334000DACFEAFFEFCFF6FFEE2AEFCFF7FF000E5E
:10335000EE22EFCFF8FFEE220800F550E66EDFCF49
:10336000E9FFDF2A010EDBCFEAFF01E3DB2AB80E1B
:10337000E926000EEA22E552E750EF6ED9CFE9FFC9
:10338000DACFEAFF100EEE18CCE1ED50CAE1DECF45
:10339000E9FFDDCFEAFFB80EE926000EEA22EF6A68
:1033A000B80EE66E000EE66E020EE66E78EC13F0D6
:1033B000E552E552E552070EE15C02E2E16AE552B0
:0A33C000E16EE552E7CFD9FF1200DD
:0633CA0021EC1FF0FB0ED8
:1033D000DBCFF3FFDB06F35000090AE06FEC1FF0D0
:1033E000FA0EDAEC1FF0F3E1151CF1E1010E01D049
:1033F000000E50EF1FF021EC1FF03B0EE12402E322
:10340000E168E652E16E010EDB6A020EDB6AF90E3C
:10341000DBCFF6FFFA0EDBCFF7FFFB0EDBCFF8FFBB
:103420000800F550DF6EDF5002E174EF1EF0250E4C
:10343000DF5C02E067EF1EF0030EDB6A040EDB6A5E
:10344000050EDB6A060EDB6A070EDB6A89EC1EF0EE
:103450002D0EDF5C0CE02B0EDF5C09E0200EDF5C44
:1034600006E0230EDF5C03E0300EDF5C1AE1DF5084
:10347000300A14E0130A0FE0030A0AE00B0A05E021
:10348000060AE4E1030EDB80E1D7030EDB82DED720
:10349000030EDB84DBD7030EDB86D8D7030EDB8875
:1034A000D5D72A0EDF5C1BE185EC1EF0D3EC1EF0B5
:1034B00010E0030EDB8008680968130EDBCF0DF007
:1034C000140EDBCF0EF01BEC28F0040E06C0DBFF61
:1034D00003D0130EBCEC1EF089EC1EF00BD0090ECD
:1034E000DB6A2AEC1FF003E09EEC1FF0FAD7090E0E
:1034F000BCEC1EF0030EDBB0DB982E0EDF5C1BE194
:1035000089EC1EF02A0EDF5C0BE185EC1EF0D3EC9B
:103510001EF003E1130E0EEC1FF089EC1EF00BD031
:10352000090EDB6A2AEC1FF003E09EEC1FF0FAD7CD
:10353000090E0EEC1FF0680EDF5C07E189EC1EF04F
:10354000680EDF5C1DE1030E18D0740EDF5C17E01F
:103550007A0EDF5C14E0480EDF5C06E0540EDF5CA0
:1035600003E05A0EDF5C02E1020E07D06C0EDF5C56
:1035700003E06A0EDF5C04E1010E61EC1FF0C9DBC1
:10358000DF506E0A01E17FD31E0A01E192D1200AC9
:1035900001E18FD13F0A01E149D11A0A01E146D187
:1035A0000D0A01E143D1200A01E140D13A0A01E1CB
:1035B0003DD1200A01E13AD1260A01E135D10D0AB7
:1035C00001E132D11A0A01E1D9D0200A4AE0300AD9
:1035D0001FE0460A0EE0250A01E083D3D950F90F17
:1035E000E96EFF0EDA20EA6E010EEE5E000EEE5A74
:1035F000EE5A6FEC1FF0250EE66E95DB03E1151C0D
:1036000001E169D36BEC1FF001E26BD3DB2A69D3D4
:10361000080EDB6A040EDB50010806E2040EDB0430
:1036200033EC1FF0DB508BDB080EDB5009E0030EA0
:10363000DB50010B05E172DB01E04DD3080EDB6AC4
:1036400064DBEFCFDFFFE3EC1FF003E1151C01E1CA
:1036500042D36BEC1FF001E3DB2A60DB01E141D3D5
:103660003AD3070EDB5002080FE1AFEC1FF0030E58
:1036700076EC1FF00E0EEECFDBFF0F0EEECFDBFF72
:10368000100EEECFDBFF20D0F70EDBCF17F0F80ED9
:10369000DBCF18F0020E175E000E185AF70E17C097
:1036A000DBFFF80E18C0DBFF17C0E9FF18C0EAFF08
:1036B00066EC1FF0166A0E0E14C0DBFF0F0E15C06D
:1036C000DBFF100E16C0DBFF0E0EDBCFE6FF0F0E8A
:1036D000DBCFE6FF100EDBCFE6FF2AEC2AF0E55247
:1036E000E552E552130E07C0DBFF140E08C0DBFFE6
:1036F000060EDB5005E0130EAAEC1FF001E26ADBB8
:10370000CEEC1FF002E2130E37DB91EC1FF006E067
:10371000040EAAEC1FF002E2050E2EDB030EDBB056
:1037200005D0FCDA01E0D7D2080EDB6A090EDB6AAD
:103730000E0EDBCFF6FF0F0EDBCFF7FF100EDBCF49
:10374000F8FF0800F550DF6EDF5014E0D4EC1FF0F6
:1037500011E2E3EC1FF003E1151C01E1BCD2BBDB7D
:1037600001E3DB2A090EDB2AD9500E0FE96E000EA9
:10377000CBDBE7D7D3DA01E1B4D2ADD2C6DA110E92
:10378000EECFDBFF120EEDCFDBFF110EDBCFE6FF3E
:10379000120EDBCFE6FF1CEC2AF0E552E552130EC9
:1037A000F3CFDBFF140EF4CFDBFF060EDB5004E09B
:1037B000130ED0DB01E20EDBCEEC1FF002E2130EA3
:1037C000DBDAAFDB05E0040EC5DB02E2050ED4DA7E
:1037D000030EDBB005D0A2DA01E07DD2080EDB6A71
:1037E000090EDB6A110EDBCFE9FF120EDBCFEAFF19
:1037F000EFCFDFFFDF5014E0D7DB12E2E4DB03E1C1
:10380000151C01E168D267DB01E3DB2A090EDB2A24
:10381000110EDB2ADBCFE9FF120EE8E3DB2AE6D745
:103820007DDA01E15ED257D2030EDB8E070EDB0498
:1038300010E195DB040E5ADB0A0EEECFDBFF0B0E18
:10384000EECFDBFF0C0EEECFDBFF0D0EEECFDBFF7E
:103850006CD0070EDB5003082CE1030EDBAE0DD05D
:10386000B2DA020E76DAEFCF14F0156A166A176A2A
:1038700014AE39D01568166835D0F70EDBCF15F0C9
:10388000F80EDBCF16F0020E155E000E165AF70E7C
:1038900015C0DBFFF80E16C0DBFF15C0E9FF16C030
:1038A000EAFFEFCF14F00A0E14C0DBFF0B0EDB6A49
:1038B00038D0070EDB50020809E1030EDBAE04D05E
:1038C00059DB16AE10D00ED055DB0DD0030EDBAE9B
:1038D00012D079DA020E3DDAF9DA166A176A15AEF5
:1038E00002D016681768E2DA0C0E16C0DBFF0D0E68
:1038F00017C0DBFF1AD0F70EDBCF16F0F80EDBCFC8
:1039000017F0020E165E000E175AF70E16C0DBFFF8
:10391000F80E17C0DBFF16C0E9FF17C0EAFFD6DAC2
:10392000C5DA0C0EDB6A0D0EDB6A060EDB5005E114
:10393000010EF36E050EF3CFDBFF150EDB6A160EDC
:10394000DB6AD950370F146E000EDA20156E390E6F
:1039500014C0DBFF3A0E15C0DBFF380EDB6A080E21
:10396000DB6A0A0EAEDADF50780A12E0200A10E0B5
:10397000280A0CE0200A0AE03F0A06E00D0A02E0ED
:10398000200A08E1020E05D0080E03D0080EDF263B
:10399000100E97DA030EDBBE02D0DB92DB94DB5015
:1039A000800B24E08ADAD890030EEB50000A08E678
:1039B000000EEE5C000EEE58000EEE58000EEE58B3
:1039C00015E213DA0B680C680D680E68E4EC29F058
:1039D0000A0E02C0DBFF0B0E03C0DBFF0C0E04C09F
:1039E000DBFF0D0E05C0DBFF2D0E08D0030EDBA2A2
:1039F00002D02B0E03D0DBA408D0200EF36E170EDE
:103A0000F3CFDBFF150EDB2A02D0170EDB6A050EA3
:103A1000DB5003E1B7D901E189D0FE0E146E550EDB
:103A2000156E000E166E070EDBCF17F0186A196AB6
:103A30001A6A17C00BF018C00CF019C00DF01AC0AC
:103A40000EF0D3D94FEC2AF014500224F36E155027
:103A50000320F46E16500420F86EF4CFF7FFF3CF76
:103A6000F6FF0800090EF5CFDBFF580EDF5C0FE113
:103A7000610EF36E090E7BD90AE3200E146E090E57
:103A8000DBCFE7FF1450E75E090EE7CFDBFF070E41
:103A9000DBCF14F0156A166A176A0FDA14C00BF040
:103AA00015C00CF016C00DF017C00EF0EECF06F0EA
:103AB000EECF07F0EECF08F0EFCF09F04FEC2AF091
:103AC00009C0EDFF08C0EDFF07C0EDFF06C0EFFF26
:103AD000390EDBCFE9FFDB063A0EDBCFEAFF01E26E
:103AE000DB06090EDBCFEFFF150EDB2A4BD995E184
:103AF000030EDBA61DD06F0EDF5C06E1C1D918E313
:103B0000150EDB285BDA14D0780EDF5C09E0580E66
:103B1000DF5C06E0620EDF5C03E0420EDF5C08E182
:103B2000020EF36E160EF3CFDBFF02D0150EDB6A2A
:103B3000030EDB50100B0EE0040EDBCF14F0050E6D
:103B4000DB50D880145406E2060EDB5003E1040E6D
:103B5000DB5034DA95D90AE2050EDBCFE7FF150E0C
:103B6000DB50E75E050EE7CFDBFF02D0050EDB6A18
:103B7000040EDBCF14F0160E45D9D880145414E28D
:103B8000160EDBCFE6FF150EDBCFE6FF040EDBCF14
:103B9000E6FF050EDB50E552E75CE552D880E754BE
:103BA000E552D880E7545FD9030EDB50010B0BE1DF
:103BB000080EDB5008E0B2D801E08DD0080EDB50D3
:103BC000BED8080EDB6A170EDB5007E088D9170E47
:103BD000F1D903E1151C01E17ED0160EDB5016E091
:103BE0007ED9300EE66E9FD802E1151C74E077D9BD
:103BF000DFCFE6FFA2EC29F0E552E552E552F4CF23
:103C000015F00001F31C02E1151C65E0050EDBCF89
:103C100014F0160EDB50D880145409E2050EDBCFE9
:103C2000E7FF160EDB50E75E050EE7CFDBFF300E39
:103C3000E66E050ECBD94FE1390EDB2ADBCFE9FF6B
:103C40003A0E01E3DB2ADBCFEAFF090EEFCFDBFF01
:103C5000DB500EE044D9090EADD902E1151C3BE062
:103C6000390EDB2ADBCFE9FF3A0EEDE3DB2AEBD797
:103C700055D831E1160EDBCFE6FF080EC3D8E5526A
:103C8000E7245DD82ED0070EDB50030A1CE0010AA2
:103C900014E0030A07E07BD9DBCFEEFF020EDBCF97
:103CA000EDFF1FD0F5D8196A17AE02D01868196851
:103CB0002CD8BCD819C0EEFF14D0EAD817BE1868AB
:103CC00024D8B4D80ED063D9DBCFEFFF0AD07BD98C
:103CD00005E1151C03E1F368F46810D0FCD801E39A
:103CE000DB2A79D910EF1AF0010EDBCF14F0020EA7
:103CF000DBCF15F014C0F3FF15C0F4FF3B0EE15C01
:103D000002E2E16AE552E16ECBD029D9020E76EFEC
:103D10001FF061D90800F550DF6E1200200EE66E2C
:103D2000080EE6EF1FF0A2EC29F0E552E552E5524D
:103D3000F3CF14F0F4CF15F00001F31C1200146E51
:103D4000156AD950010F4DD91450EE261550ED22A9
:103D50001200185E000E195AF70E18C0DBFFF80E9D
:103D600019C0DBFF18C0E9FF19C0EAFF1200DBCF62
:103D7000F4FFF350F45C1200DB50E76E040EE7CF63
:103D8000DBFF12000A0EDBCF14F00B0EDBCF15F0B9
:103D90000C0EDBCF16F00D0EDBCF17F01450151004
:103DA000161017101200130EEECFDBFF140EEDCF1E
:103DB000DBFF130EDBCF14F0140EDBCF15F0000188
:103DC000800E15141200F70EDBCF18F0F80EDBCFC3
:103DD00019F01200050EDB50E66ED950130F01D911
:103DE000E552E750EE6EED6A12000A0EDBCF06F0E8
:103DF0000B0EDBCF07F00C0EDBCF08F00D0EDBCF88
:103E000009F01200DBCFE6FF150EDBCFE6FF050E53
:103E1000DB50E552E724E552E7241200DB50CED810
:103E2000010EF36E060EF3CFDBFF1200EE50EFCF64
:103E3000EAFFE96E16C0EEFF17C0EEFF18C0EEFFF6
:103E40001200D9CFE6FFDACFE6FFE1CFD9FFE2CF0C
:103E5000DAFF1200DFCFE6FFE66AAAEC2AF0E552AD
:103E6000E552F3501200E76E080EE7CFDBFF1200B9
:103E7000EECF14F0EECF15F0EFCF16F0176A120068
:103E8000050EDBCF14F0150EDB50D8801454120051
:103E9000010EDBCF16F0020EDBCF17F0186A12000E
:103EA000E552E5CFDAFFE7CFD9FF12000A0E14C0C2
:103EB000DBFF0B0E15C0DBFF1200D9500A0FF1EF2C
:103EC0001FF0F36E070EF3CFDBFF1200EECF14F0FE
:103ED000EFCF15F01200010EDB2A020E1200FC0ECD
:103EE000DBCFE6FFFD0EDBCFE6FF1200145E000E17
:103EF000155AF70E14C0DBFFF80E15C0DBFF14C017
:103F0000E9FF15C0EAFF1200DA20EA6EEF2AEECFD1
:103F1000F6FF000EEF22EECFF7FFEF22EECFF8FF15
:103F20001200040EDBCFE6FF130EDB50E552E75C18
:103F30009ADFDB5004DF060EDB501200090EDB5067
:103F40000A0DF350DF24D00FE76E090EE7CFDBFF39
:103F500089EF1EF0DB50F36E050EB7EF1EF0F70E83
:103F6000DBCF14F0F80EDBCF15F01200DFCFE6FF49
:103F700093EF1EF028DF030EECDE38EF1FF0E5ECC8
:103F800019F0E552E552E552E55200091200BDDE96
:103F9000EE50EFCFEAFFE96E010E1200130EDB5078
:103FA000F36E040EB7EF1EF0040EDB50F36E090E35
:103FB000B7EF1EF0DBCFE6FF93EF1EF0E76E050EC6
:103FC000E7CFDBFF12008BDFB6EF1FF0DBCFE6FFA2
:103FD00086DFBFEF1FF0D950F90FE96EFF0E84EFB7
:0C3FE0001FF0E96E000EDA20EA6E1200FD
:043FEC009D9A9E9A62
:103FF000040EAC6E800EAB6EB886B06A440EAF6E27
:10400000240EAC6E900EAB6E0001EC6B200EEC5DDE
:1040100009E2EC51EA6AC90FE96E000EEA22EF6A82
:10402000EC2BF4D7ED6BEDC0ECF0EF6B9F9A9E9A02
:104030009D8A1200D9CFE6FFE1CFD9FFACA2FED70F
:10404000FE0EDB50AD6EE552E7CFD9FF1200D9CF9F
:10405000E6FFE1CFD9FFFD0EDBCFE9FFFE0EDBCFA0
:10406000EAFFEF500EE0FD0EDBCFE9FFDB2AFE0E8C
:10407000DBCFEAFF01E3DB2AEF50E66EDBDFE55240
:10408000EAD7E552E7CFD9FF1200D9CFE6FFE1CF5B
:10409000D9FFFC0EDBCFF6FFFD0EDBCFF7FFFE0EE8
:1040A000DBCFF8FF0800F55016E0D950FC0FE96EA1
:1040B000FF0EDA20EA6EEFCFF6FFEE2AEFCFF7FF22
:1040C000000EEE22EFCFF8FFEE220800F550E66E6C
:1040D000B1DFE552DED7E552E7CFD9FF1200D9CFE5
:1040E000E6FFE1CFD9FFE6520001ED51EA6AC90FC0
:1040F000E96E000EEA22EFCFDFFF200E146EED2BEB
:10410000ED51D880145401E3ED6BDF50E552E552D8
:10411000E7CFD9FF12000001EC51ED5D01E1000C89
:10412000010CD9CFE6FFE1CFD9FF200EE1261B0E0F
:10413000DB6A0001EA6BEB6B0001640ED880EA5584
:10414000000EEB5501E234D0E6DF000901E1F4D7BF
:10415000C6DFE76E180EE7CFDBFF180EDBCF14F0DB
:10416000200EE76E1418E8AE02D0E73402D0E75014
:10417000145C01E21DD0170E146E1B0EDB50145C94
:1041800001E216D0D9CF14F0DACF15F01B0EDBCF39
:10419000F3FFDB2AF3500F011424E96E000E152003
:1041A000EA6E180EDBCFEFFF0001EA6BEB6BC4D7B2
:1041B000D9CF14F0DACF15F01B0EDB500F01142409
:1041C000E96E000E1520EA6EEF6A1B0EDB5001E16E
:1041D000FBD0DF50520A01E1DED0040A01E1D9D060
:1041E000140A01E1C9D00F0A01E18BD0020A6CE088
:1041F000030A4DE0050A31E03A0A2EE0200A01E008
:10420000DED0640E0101CC6FCD6B010EDB50310AA4
:1042100011E0010A01E01BD0030EDB50310805E17B
:10422000DDD80101AA81899E04D00101AA91010172
:10423000AB6B0DD0030EDB50310802E1010E01D053
:10424000000E0101E8B0AA83E8A0AA9300D0010EF5
:1042500001010D6F0E6BB8D0B7D0010EDB504408D2
:104260000EE1300EF36E030EDBCFF4FFF350F45C7F
:1042700006E3390E146E030EDB50145C01E2A4D089
:10428000030EDB50D00F0101AB6FA8D89DD0010EFB
:10429000DB50D00FE76E190EE7CFDBFF030EDB50CC
:1042A000D00FE76E1A0EE7CFDBFF0101AB510BE138
:1042B0001A0EDBCFE6FF190EDBCFE6FFF7EC0DF0B1
:1042C000E552E55200D080D0010EDB50D00FE76EF2
:1042D000190EE7CFDBFF030EDB50D00FE76E1A0E8F
:1042E000E7CFDBFF0101AB510BE11A0EDBCFE6FF9D
:1042F000190EDBCFE6FF43EC0DF0E552E55200D09E
:1043000063D0030EE66ED950020FE66E000EDA207F
:10431000E66E54DAE552E552E5521C0EF3CFDBFFB0
:104320001D0EF4CFDBFF030EE66ED950060FE66ECE
:10433000000EDA20E66E42DAE552E552E5521E0E34
:10434000F3CFDBFF1F0EF4CFDBFF0101AB5113E115
:104350001E0EDBCFE6FF1F0EDBCFE6FF1C0EDBCF12
:10436000E6FF1D0EDBCFE6FF33EC0AF0E552E55227
:10437000E552E55200D028D0070E01010D6F0E6BFB
:10438000D9CFE6FFDACFE6FF94EC26F0E552E5520E
:104390001BD06CD819D0D9CFE6FFDACFE6FF090ED3
:1043A000E66E78EC13F0E552E552E5520A0EE66E41
:1043B000E66A09EC0AF0E552E552FF0005D0150E59
:1043C000E66E38DEE55200D0200EE15C02E2E16AE2
:1043D000E552E16EE552E7CFD9FF1200D9CFE6FFF3
:1043E000E1CFD9FFE652E00E146E510E156E166A3B
:1043F00014C0E6FFE66E16C0E6FF47DEE552E55262
:10440000E5520101AB5111E1DF6A0A0EDF5C0DE2FA
:10441000DF50EA6AA00FE96E010EEA22EF50300F7A
:10442000E66E08DEE552DF2AF0D7D70E146E510E85
:10443000156E166A14C0E6FFE66E16C0E6FF25DEAE
:10444000E552E552E552D40E146E510E156E166A01
:1044500014C0E6FFE66E16C0E6FF17DEE552E55231
:10446000E552E552E552E7CFD9FF1200D9CFE6FF7A
:10447000E1CFD9FF200EE126C5EC25F0C60E146E63
:10448000510E156E166A14C0E6FFE66E16C0E6FF02
:10449000FCDDE552E552E552200EE66ECBDDE5523D
:1044A000BD0E146E510E156E166A14C0E6FFE66E50
:1044B00016C0E6FFEADDE552E552E552FEC0E6FF32
:1044C000FFC0E6FFFCC0E6FFFDC0E6FFFAC0E6FF66
:1044D000FBC0E6FFA80E146E510E156E166A14C0CE
:1044E000E6FFE66E16C0E6FFD9CFE6FFDACFE6FFBD
:1044F000FDEC28F0176E0B0EE15E1750D9CFE6FFEA
:10450000DACFE6FFA4DDE552E552200EE15C02E2DF
:10451000E16AE552E16EE552E7CFD9FF1200D9CF4B
:10452000E6FFE1CFD9FF160EE1260101AB5152E1C2
:10453000020EDB6A0A0EF36E020EDBCFF4FFF350BD
:10454000F45C37E2020EDB50EA6AA00FE96E010E5E
:10455000EA22EF500FE1020EDBCFE6FFAFEC0DF0E9
:10456000E552000903E1146A156A12D01468030EBB
:10457000156E0ED0020EEA6ADB34FE0BEA36E96EE7
:104580000F0EE926010EEA22EECF14F0EFCF15F060
:10459000020EEA6ADB34FE0BEA36E96EAC0EE9265F
:1045A000010EEA2214C0EEFF15C0EDFF020EDB2A59
:1045B000C1D7E66A27EC0EF0E552E76E140EE7CF9E
:1045C000DBFF010EE66E27EC0EF0E552E76E150EEE
:1045D000E7CFDBFF020EDB6A0A0EF36E020EDBCFC3
:1045E000F4FFF350F45C34E2020EEA6ADB34FE0BB3
:1045F000EA36E96EAC0EE926010EEA22EECFE6FFBE
:10460000EFCFE6FF020EDB28E66EE66A9D0E146E23
:10461000510E156E166A14C0E6FFE66E16C0E6FF70
:10462000D950030FE66E000EDA20E66EFDEC28F09E
:10463000176E090EE15E1750D950030FE66E000E9B
:10464000DA20E66E04DDE552E552020EDB2AC4D71D
:10465000020EDB6AD950030F146E020EDBCFF3FF9C
:10466000DB2AF3500F011424E96E000EDA20EA6E03
:104670004C0EEF6ED950030F146E020EDBCFF3FF1A
:10468000DB2AF3501424E96E000EDA20EA6E450EA0
:10469000EF6ED950030F146E020EDBCFF3FFDB2A4F
:1046A000F3501424E96E000EDA20EA6E440EEF6E29
:1046B000D950030F146E020EDBCFF3FFDB2AF35049
:1046C0001424E96E000EDA20EA6E3D0EEF6E140E31
:1046D000DB50300FE66ED950030F146E020EDBCFA5
:1046E000F3FFDB2AF3501424E96E000EDA20EA6EA1
:1046F000E552E750EF6E150EDB50300FE66ED950E5
:10470000030F146E020EDBCFF3FFDB2AF3501424E9
:10471000E96E000EDA20EA6EE552E750EF6ED950EE
:10472000030F146EDACF15F0020EDB501424E96E7D
:10473000000EDA20EA6EEF6AD950030FE66E000E23
:10474000DA20E66E84DCE552E552D40E146E510E8A
:10475000156E166A14C0E6FFE66E16C0E6FF95DC1D
:10476000E552E552E5528D0E146E510E156E166A25
:1047700014C0E6FFE66E16C0E6FF010EE66E14EC0E
:1047800013F0E552E552E552E552030EE66E020ED5
:10479000E66E010EE66EE66A020EE66E39EC15F084
:1047A000146E050EE15E1450160EE15C02E2E16A41
:1047B000E552E16EE552E7CFD9FF1200D9CFE6FF0F
:1047C000E1CFD9FF060EE126010EF36E040EF3CF02
:1047D000DBFF050EDB6A020EDB6A030EDB6ADF6AB3
:1047E000FC0EDB50DF5C43E2FD0EDBCFE9FFDB2A92
:1047F000FE0EDBCFEAFF01E3DB2A010EEFCFDBFF8A
:10480000DB5035E0010EDB502D0805E1040EDB68BE
:10481000050EDB682AD0300EF36E010EDBCFF4FFFD
:10482000F350F45C22E3390E146E010EDB50145C7D
:104830001CE3D950020FE96EDACFEAFF0A0EEC0250
:10484000F3CFEDFFEF02F3CFEEFFF450ED26010EB4
:10485000DB50D00F146E156AD950020FE96EDACF13
:10486000EAFF1450EE261550ED22DF2AB9D7040EC8
:10487000DBCF14F0050EDBCF15F0D950020FE96E37
:10488000DACFEAFF14C00DF015C00EF0EECF08F03D
:10489000EDCF09F048EC28F006C0EEFF07C0EDFFB1
:1048A000020EDBCF14F0030EDBCF15F014C0F3FFC4
:1048B00015C0F4FF060EE15C02E2E16AE552E16E2A
:1048C000E552E7CFD9FF1200D9CFE6FFE1CFD9FFFC
:1048D000060EE126DE6ADE6ADE6ADD6ADD52DD5240
:1048E000040EDB6AFC0EDB50F36E040EDBCFF4FF2C
:1048F000F350F45C57E2FD0EDBCFE9FFDB2AFE0E3E
:10490000DBCFEAFF01E3DB2A050EEFCFDBFF300E42
:10491000F36E050EDBCFF4FFF350F45C43E3390E86
:10492000146E050EDB50145C3DE3300E146E050E64
:10493000DBCFE7FF1450E75E050EE7CFDBFFD9CFF3
:10494000E9FFDACFEAFF0A0E0B6E0C6A0D6A0E6AF7
:10495000EECF06F0EECF07F0EECF08F0EFCF09F084
:10496000E4EC29F005C0EDFF04C0EDFF03C0EDFF4E
:1049700002C0EFFF050EDBCF14F0156A166A176A46
:1049800014AE03D01568166817681450DE2615504B
:10499000DE221650DE221750DD22DD52DD52040EDB
:1049A000DB2AA0D7DECF06F0DECF07F0DECF08F09F
:1049B000DDCF09F0DD52DD52060EE15C02E2E16A74
:1049C000E552E16EE552E7CFD9FF1200D9CFE6FFFD
:1049D000E1CFD9FF040EE126DE6ADD6A020EDB6A52
:1049E000FC0EDB50F36E020EDBCFF4FFF350F45CF1
:1049F0004FE2FD0EDBCFE9FFDB2AFE0EDBCFEAFF45
:104A000001E3DB2A030EEFCFDBFF300E146E030E43
:104A1000DB50D880145408E3030EDB50390804E35C
:104A2000030EDB50D00F1ED0410E146E030EDB5070
:104A3000D880145408E3030EDB50460804E3030E49
:104A4000DB50BF0F0ED0610E146E030EDB50D8800A
:104A500014541EE3030EDB5066081AE3030EDB500A
:104A60009F0F0A0FE76E030EE7CFDBFFD9CFE9FFF9
:104A7000DACFEAFF040ED890EE36ED36E806FBE119
:104A8000030EDB50DE26000EDD22020EDB2AA8D745
:104A9000DECF14F0DDCF15F014C0F3FF15C0F4FF26
:104AA000040EE15C02E2E16AE552E16EE552E7CF15
:104AB000D9FF1200D9CFE6FFE1CFD9FF300EF36E58
:104AC000FE0EDBCFF4FFF350F45C08E3390E146EF6
:104AD000FE0EDB50145C02E3000E01D0010E000953
:104AE00002E0000E01D0010EE552E7CFD9FF12001F
:104AF000D9CFE6FFE1CFD9FFE652FD0EDB50A96E1C
:104B0000A69EA69CA680A850DF6EDF50E552E55217
:104B1000E7CFD9FF1200D9CFE6FFE1CFD9FF020ED0
:104B2000E126FD0EDB50A96EFC0EDB50A86EA69EA2
:104B3000A69CA684F29E550EA76EAA0EA76EA6820C
:104B4000DE6ADD6AA6A215D0DFCF14F0DF2A010EDF
:104B5000DBCF15F001E3DB2A166A1634000E1618B7
:104B600007E6D880E80E1454FD0E1554000E1654B6
:104B7000E9E2F28EA694020EE15C02E2E16AE552FD
:104B8000E16EE552E7CFD9FF1200D9CFE6FFE1CFC2
:104B9000D9FF020EE126000EE66EE66AA9DFE552B5
:104BA000E552DF6E010EE66EE66AA2DFE552E552DF
:104BB000E76E010EE7CFDBFFDECF14F0DDCF15F09F
:104BC000F00ED8801454000E155402E2DE6ADD6A3D
:104BD000DECFFAF0DDCFFBF0020EE66EE66A88DF8C
:104BE000E552E552DF6E030EE66EE66A81DFE552BE
:104BF000E552E76E010EE7CFDBFFDECF14F0DDCF2D
:104C000015F0F00ED8801454000E155402E2DE6A3E
:104C1000DD6ADECFFCF0DDCFFDF0040EE66EE66A65
:104C200067DFE552E552DF6E050EE66EE66A60DF8D
:104C3000E552E552E76E010EE7CFDBFFDECF14F061
:104C4000DDCF15F0140ED8801454000E155403E275
:104C50000A0EDE6EDD6ADECFFEF0DDCFFFF0020E63
:104C6000E15C02E2E16AE552E16EE552E7CFD9FF8D
:104C70001200D9CFE6FFE1CFD9FF020EE126FAC03C
:104C8000DEFFFBC0DDFFDFCFE6FF000EE66EE66A6B
:104C900042DFE552E552E552010EDBCFE6FFE66E5C
:104CA000E66A39DFE552E552E552FCC0DEFFFDC0A1
:104CB000DDFFDFCFE6FF020EE66EE66A2CDFE5528F
:104CC000E552E552010EDBCFE6FF030EE66EE66A23
:104CD00022DFE552E552E552FEC0DEFFFFC0DDFFF8
:104CE000DFCFE6FF040EE66EE66A15DFE552E55219
:104CF000E552010EDBCFE6FF050EE66EE66A0BDF3E
:104D0000E552E552E552320EE66EE66A09EC0AF02B
:104D1000E552E552020EE15C02E2E16AE552E16E23
:104D2000E552E7CFD9FF1200D9CFE6FFE1CFD9FF97
:104D30001E0EE126020EE76EFD0EDBCFE9FFFE0E32
:104D4000DBCFEAFFE750E926000EEA22EF50E66EDD
:104D50005AEC25F0E552000901E1DCD0060EE76EC1
:104D6000FD0EDBCFE9FFFE0EDBCFEAFFE750E926C1
:104D7000000EEA22EF50E66E5AEC25F0E5520009EB
:104D800001E1C8D0030EE66E020EE76EFD0EDBCF2A
:104D900014F0FE0EDBCF15F0E7501426000E15229E
:104DA00014C0E6FF15C0E6FFDEEC23F0E552E55245
:104DB000E552F3CFDEFFF4CFDDFFDECF14F0DDCF21
:104DC00015F0F00ED8801454000E155403E2F00EC6
:104DD000DE6EDD6A030EE66E060EE76EFD0EDBCFBD
:104DE00014F0FE0EDBCF15F0E7501426000E15224E
:104DF00014C0E6FF15C0E6FFDEEC23F0E552E552F5
:104E0000E552020EF3CFDBFF030EF4CFDBFF020E01
:104E1000DBCF14F0030EDBCF15F0F00ED880145466
:104E2000000E155407E2F00EF36E020EF3CFDBFF17
:104E3000030EDB6ADECFFAF0DDCFFBF0020EDBCF34
:104E4000FCF0030EDBCFFDF00A0EE76EFD0EDBCFAC
:104E5000E9FFFE0EDBCFEAFFE750E926000EEA226B
:104E6000EF50E66E5AEC25F0E552000952E0030ED1
:104E7000E66E0A0EE76EFD0EDBCF14F0FE0EDBCF02
:104E800015F0E7501426000E152214C0E6FF15C0D9
:104E9000E6FFDEEC23F0E552E552E552040EF3CFD7
:104EA000DBFF050EF4CFDBFFD950040FE96EDACF3C
:104EB000EAFFFF0EEE1809E1ED5007E10A0EF36E6E
:104EC000040EF3CFDBFF050EDB6A040EDBCF14F01C
:104ED000050EDBCF15F0010E145C000E15580CE327
:104EE000040EDBCF16F0050EDBCF17F0140ED880C2
:104EF0001654000E175407E2140EF36E040EF3CF8F
:104F0000DBFF050EDB6A040EDBCFFEF0050EDBCF08
:104F1000FFF0AFDE3ADEFEC0E6FFFFC0E6FFFCC0FA
:104F2000E6FFFDC0E6FFFAC0E6FFFBC0E6FFE60EC7
:104F3000146E510E156E166A14C0E6FFE66E16C0AA
:104F4000E6FFD950060FE66E000EDA20E66EFDECA5
:104F500028F0176E0B0EE15E1750D950060FE66E63
:104F6000000EDA20E66E27EC20F0E552E5521E0E28
:104F7000E15C02E2E16AE552E16EE552E7CFD9FF7A
:024F800012001D
:0E4F8200006A0EAECAEF27F00D6C0E1EE86A34
:104F90000E22001E09AED2EF27F0086C091EE86A47
:104FA0000922001E94EC2AF009BEE2EF27F000AEC1
:104FB000000C086C091EE86A0922046C051EE86AE8
:104FC0000522000C00BED9EF27F00188FF0C006A13
:104FD000E86A0EAEF4EF27F00B6C0C1E0D1E0E1ED1
:104FE0000C220D220E22001E09AEFFEF27F0066CE8
:104FF000071E081E091E072208220922001E4FEC68
:105000002AF009BE16EF28F000AE000C066C071E51
:10501000081E091EE86A072208220922026C031EE4
:10502000041E051E032204220522000C00BE06EF0A
:1050300028F00188FF0C09C013F008C012F00850D6
:105040000D02F4CF07F0F3CF06F009500E02F4CFB3
:1050500009F0F3CF08F00D02F3500726F4500822B0
:10506000E86A092212500E02F3500726F450082273
:10507000E86A09220EAE41EF28F01250085E135084
:10508000095A13AE000C0D50085E0E50095A000C60
:1050900008C012F008500D02F4CF07F0F3CF06F06D
:1050A00009500E02F4CF09F0F3CF08F00D02F350CF
:1050B0000726F4500822E86A092212500E02F35023
:0C50C0000726F4500822E86A0922000CC0
:0450CC00462D422DFE
:1050D000534C2D53522D544C2D5452004D4F544F80
:1050E0005220434845434B00434E3120434E32202B
:1050F000434E3320434E340020202052756E6E699B
:105100006E67202E2E2E00557365722050726F67C9
:1051100072616D000D0A005665722E352E32380010
:10512000652D47616467657420434F524500202D0B
:105130002D2E2D002533642E256425634300253351
:1051400075202533752025337520253375002533CB
:105150006C642025336C642025336C642025336C0B
:10516000640025346C64202025346C6420202534B0
:105170006C640025633A252D366C6425633A252D31
:10518000366C640025633A252D366C6400434E313D
:1051900020434E3220434E3320434E3400434E25AD
:1051A000643D253034752C002020423A253033757B
:1051B0002C253033752C253033750D0A0056657259
:1051C0002E352E323800652D4761646765742043A3
:1051D0004F5245000D0A002C5553455F4C43440087
:1051E000434E696F3A00423A253033752C253033EF
:0951F000752C253033750D0A0001
:0651FA00D9CFE6FFDACF79
:10520000E6FFE1CFD9FFE2CFDAFFE652E652E652FF
:10521000E652D950F90F146EFF0EDA20156E020E09
:1052200014C0DBFF030E15C0DBFF020EDBCFE6FF71
:10523000030EDBCFE6FFF90EDBCFE6FFFA0EDBCF86
:10524000E6FFFB0EDBCFE6FFD950FC0FE66EFF0E4C
:10525000DA20E66EFBEC19F0146E070EE15C02E258
:10526000E16AE552E16E1450F3CFDEFFF4CFDDFFCB
:10527000FC0EDBCFE9FFFD0EDBCFEAFFEF6ADECFEE
:1052800014F0DDCF15F014C0F3FF15C0F4FF040EC9
:10529000E15C02E2E16AE552E16EE552E5CFDAFF58
:0652A000E7CFD9FF120068
:0A52A6001E0EF66E080EF76E000EE5
:1052B000F86E00010900F550F56F0900F550F66F22
:1052C00003E1F56701D03DD00900F550F06F09000A
:1052D000F550F16F0900F550F26F09000900F55023
:1052E000E96E0900F550EA6E090009000900F55061
:1052F000F36F0900F550F46F09000900F6CFF7F0DD
:10530000F7CFF8F0F8CFF9F0F0C0F6FFF1C0F7FFF3
:10531000F2C0F8FF0001F35302E1F45307E0090083
:10532000F550EE6EF307F8E2F407F9D7F7C0F6FF91
:10533000F8C0F7FFF9C0F8FF0001F507000EF65BB3
:04534000BFD71200C1
:0C534400D9CFE6FFDACFE6FFE1CFD9FFBA
:10535000E2CFDAFFFB0EDBCF14F0FC0EDBCF15F053
:105360000001800E15141AE1FB0EDBCFE9FFFC0EE5
:10537000DBCFEAFFEECFF3FFEDCFF4FFEE2A000E16
:10538000EF22F3CFE9FFF4CFEAFFFD0EDBCFEFFF13
:10539000EF50156AF36E15C0F4FF10D0FB0EDB5012
:1053A000FE0806E1FD0EDBCFE6FFCCEC2AF005D0CF
:1053B000FD0EDBCFE6FF03EC04F0E552E552E5CF4E
:0853C000DAFFE7CFD9FF12006C
:0853C80006500B02F3CF02F0C6
:1053D000F4CF03F00C02F3500326000EF420046E09
:1053E00006500D02F3500426000EF420056E065000
:1053F0000E02F350052607500B02F3500326F4501B
:105400000422000E052207500C02F3500426F4502B
:10541000052207500D02F350052608500B02F350E9
:105420000426F450052208500C02F35005260950BA
:085430000B02F35005261200E7
:08543800FE0EE3CFE9FFFF0EB9
:10544000E3CFEAFFF36AF46AEE5203E0F34AF42A88
:10545000FBD71200FF0EE3CFF8FFE552FF0EE3CFBC
:10546000F7FFE552FF0EE3CFF6FFE552E66AE66A84
:10547000E66A0900F55209E0FD0EE32A05E1FE0E99
:10548000E32A02E1FF0EE32AF4D7FD0EE3CF07F093
:0E549000FE0EE3CF08F0FF0EE3CF09F012008E
:02549E00056A9D
:1054A000046A036A026A200EE76ED8900636073651
:1054B0000836093602360336043605360B50025CD0
:1054C0000C5003580D5004580E50055809E30B506A
:1054D000025E0C50035A0D50045A0E50055A062A0B
:0654E000E72EE4D71200E4
:0A54E6000101990ED8800F55010E48
:1054F000105506E2320EE66EE66AE66EE66A06D001
:105500001E0EE66EE66AE20EE66EE66833EC0AF020
:10551000E552E552E552E552640EE66EE66A09ECA4
:085520000AF0E552E552DFD765
:08552800056A046A100EE76E2B
:10553000D89008360936043605360D50045C0E50F6
:10554000055805E30D50045E0E50055A082AE72E53
:04555000F0D712007E
:0C555400F36AF46AFF0EE124E96EFF0E1A
:10556000E220EA6EED6607D02F0EEF6404D03A0E0B
:08557000EF6001D0F32A1200E4
:08557800000EF36E00EE00F0DE
:10558000060E01D81200EA6002D0EE6AFCD7F35092
:08559000E9601200EE6AFCD78D
:08559800FF0EE350ACBA04D091
:1055A000AF6AAB8EAC8A949CACA2FED7AD6EF36EA4
:0455B000F46A120087
:0C55B400FF0EE3501E6E1B0E00D001D055
:1055C000200EE76EE72EFED71E2EFAD700D012006F
:1055D00015EE00F025EE00F0F86A018C53EC29F08E
:0855E0002BEC09F0FDD71200CD
:0855E800FF0EE350E84E120033
:0E55F000000000D000D000D0E82EFAD7120044
:0255FE0030314A
:0F5600003233343536373839616263646566009A
:01560F000397
:10561000070B0F1323272B2F330100020004000870
:105620000010002000400080000001000200040083
:0956300008001000200040008079
:00000001FF
